{
  "contractName": "AssetManagement",
  "abi": [
    {
      "anonymous": false,
      "inputs": [
        {
          "indexed": true,
          "internalType": "uint256",
          "name": "assetId",
          "type": "uint256"
        },
        {
          "indexed": true,
          "internalType": "address",
          "name": "ownerAddress",
          "type": "address"
        },
        {
          "indexed": true,
          "internalType": "enum AssetManagement.AssetType",
          "name": "assetType",
          "type": "uint8"
        }
      ],
      "name": "AssetRegistered",
      "type": "event"
    },
    {
      "anonymous": false,
      "inputs": [
        {
          "indexed": true,
          "internalType": "address",
          "name": "newExecutor",
          "type": "address"
        }
      ],
      "name": "ExecutorSet",
      "type": "event"
    },
    {
      "inputs": [
        {
          "internalType": "uint256",
          "name": "",
          "type": "uint256"
        }
      ],
      "name": "assets",
      "outputs": [
        {
          "internalType": "uint256",
          "name": "assetId",
          "type": "uint256"
        },
        {
          "internalType": "enum AssetManagement.AssetType",
          "name": "assetType",
          "type": "uint8"
        },
        {
          "internalType": "address",
          "name": "ownerAddress",
          "type": "address"
        }
      ],
      "stateMutability": "view",
      "type": "function",
      "constant": true
    },
    {
      "inputs": [],
      "name": "executor",
      "outputs": [
        {
          "internalType": "address",
          "name": "",
          "type": "address"
        }
      ],
      "stateMutability": "view",
      "type": "function",
      "constant": true
    },
    {
      "inputs": [],
      "name": "isParticipantConfirmed",
      "outputs": [
        {
          "internalType": "bool",
          "name": "",
          "type": "bool"
        }
      ],
      "stateMutability": "view",
      "type": "function",
      "constant": true
    },
    {
      "inputs": [],
      "name": "nextAssetId",
      "outputs": [
        {
          "internalType": "uint256",
          "name": "",
          "type": "uint256"
        }
      ],
      "stateMutability": "view",
      "type": "function",
      "constant": true
    },
    {
      "inputs": [
        {
          "internalType": "address",
          "name": "newExecutor",
          "type": "address"
        }
      ],
      "name": "setExecutor",
      "outputs": [],
      "stateMutability": "nonpayable",
      "type": "function"
    },
    {
      "inputs": [
        {
          "internalType": "address",
          "name": "ownerAddress",
          "type": "address"
        }
      ],
      "name": "registerRealEstateAsset",
      "outputs": [
        {
          "internalType": "uint256",
          "name": "",
          "type": "uint256"
        }
      ],
      "stateMutability": "nonpayable",
      "type": "function"
    },
    {
      "inputs": [
        {
          "internalType": "address",
          "name": "ownerAddress",
          "type": "address"
        }
      ],
      "name": "registerFinancialAsset",
      "outputs": [
        {
          "internalType": "uint256",
          "name": "",
          "type": "uint256"
        }
      ],
      "stateMutability": "nonpayable",
      "type": "function"
    },
    {
      "inputs": [
        {
          "internalType": "address",
          "name": "ownerAddress",
          "type": "address"
        }
      ],
      "name": "registerArtworkAsset",
      "outputs": [
        {
          "internalType": "uint256",
          "name": "",
          "type": "uint256"
        }
      ],
      "stateMutability": "nonpayable",
      "type": "function"
    },
    {
      "inputs": [
        {
          "internalType": "address",
          "name": "ownerAddress",
          "type": "address"
        }
      ],
      "name": "registerBusinessAsset",
      "outputs": [
        {
          "internalType": "uint256",
          "name": "",
          "type": "uint256"
        }
      ],
      "stateMutability": "nonpayable",
      "type": "function"
    },
    {
      "inputs": [
        {
          "internalType": "address",
          "name": "ownerAddress",
          "type": "address"
        }
      ],
      "name": "registerInsuranceAsset",
      "outputs": [
        {
          "internalType": "uint256",
          "name": "",
          "type": "uint256"
        }
      ],
      "stateMutability": "nonpayable",
      "type": "function"
    },
    {
      "inputs": [
        {
          "internalType": "address",
          "name": "ownerAddress",
          "type": "address"
        }
      ],
      "name": "registerDebtsAsset",
      "outputs": [
        {
          "internalType": "uint256",
          "name": "",
          "type": "uint256"
        }
      ],
      "stateMutability": "nonpayable",
      "type": "function"
    }
  ],
  "bytecode": "0x6080604052600160025534801561001557600080fd5b506115ee806100256000396000f3fe608060405234801561001057600080fd5b50600436106100a95760003560e01c80638ed91318116100715780638ed913181461018a578063a707f3e7146101a8578063b89e6abb146101c6578063c34c08e5146101f6578063cf35bdd014610214578063eb3d47b514610246576100a9565b80630a4e7f0c146100ae5780630ae967c5146100de5780631c3c0ea81461010e5780632c02cd7e1461012a5780638e9f05221461015a575b600080fd5b6100c860048036038101906100c3919061127b565b610276565b6040516100d591906113ff565b60405180910390f35b6100f860048036038101906100f3919061127b565b6104d4565b60405161010591906113ff565b60405180910390f35b6101286004803603810190610123919061127b565b610732565b005b610144600480360381019061013f919061127b565b610847565b60405161015191906113ff565b60405180910390f35b610174600480360381019061016f919061127b565b610aa5565b60405161018191906113ff565b60405180910390f35b610192610d01565b60405161019f91906113ff565b60405180910390f35b6101b0610d07565b6040516101bd91906113a4565b60405180910390f35b6101e060048036038101906101db919061127b565b610d1a565b6040516101ed91906113ff565b60405180910390f35b6101fe610f78565b60405161020b9190611389565b60405180910390f35b61022e600480360381019061022991906112a4565b610f9c565b60405161023d9392919061141a565b60405180910390f35b610260600480360381019061025b919061127b565b610ff3565b60405161026d91906113ff565b60405180910390f35b60008060009054906101000a900473ffffffffffffffffffffffffffffffffffffffff1673ffffffffffffffffffffffffffffffffffffffff163373ffffffffffffffffffffffffffffffffffffffff1614610307576040517f08c379a00000000000000000000000000000000000000000000000000000000081526004016102fe906113bf565b60405180910390fd5b60006002549050604051806060016040528082815260200160026005811115610359577f4e487b7100000000000000000000000000000000000000000000000000000000600052602160045260246000fd5b81526020018473ffffffffffffffffffffffffffffffffffffffff16815250600160008381526020019081526020016000206000820151816000015560208201518160010160006101000a81548160ff021916908360058111156103e6577f4e487b7100000000000000000000000000000000000000000000000000000000600052602160045260246000fd5b021790555060408201518160010160016101000a81548173ffffffffffffffffffffffffffffffffffffffff021916908373ffffffffffffffffffffffffffffffffffffffff16021790555090505060026000815480929190610448906114cf565b919050555060026005811115610487577f4e487b7100000000000000000000000000000000000000000000000000000000600052602160045260246000fd5b8373ffffffffffffffffffffffffffffffffffffffff16827fe2fd0b278b760054fa6b107668a88cad6db92086d4915a0f49c418ef2986dea060405160405180910390a480915050919050565b60008060009054906101000a900473ffffffffffffffffffffffffffffffffffffffff1673ffffffffffffffffffffffffffffffffffffffff163373ffffffffffffffffffffffffffffffffffffffff1614610565576040517f08c379a000000000000000000000000000000000000000000000000000000000815260040161055c906113bf565b60405180910390fd5b600060025490506040518060600160405280828152602001600060058111156105b7577f4e487b7100000000000000000000000000000000000000000000000000000000600052602160045260246000fd5b81526020018473ffffffffffffffffffffffffffffffffffffffff16815250600160008381526020019081526020016000206000820151816000015560208201518160010160006101000a81548160ff02191690836005811115610644577f4e487b7100000000000000000000000000000000000000000000000000000000600052602160045260246000fd5b021790555060408201518160010160016101000a81548173ffffffffffffffffffffffffffffffffffffffff021916908373ffffffffffffffffffffffffffffffffffffffff160217905550905050600260008154809291906106a6906114cf565b9190505550600060058111156106e5577f4e487b7100000000000000000000000000000000000000000000000000000000600052602160045260246000fd5b8373ffffffffffffffffffffffffffffffffffffffff16827fe2fd0b278b760054fa6b107668a88cad6db92086d4915a0f49c418ef2986dea060405160405180910390a480915050919050565b600073ffffffffffffffffffffffffffffffffffffffff1660008054906101000a900473ffffffffffffffffffffffffffffffffffffffff1673ffffffffffffffffffffffffffffffffffffffff16146107c1576040517f08c379a00000000000000000000000000000000000000000000000000000000081526004016107b8906113df565b60405180910390fd5b806000806101000a81548173ffffffffffffffffffffffffffffffffffffffff021916908373ffffffffffffffffffffffffffffffffffffffff1602179055508073ffffffffffffffffffffffffffffffffffffffff167f3e3c5e6d5b512eaa5d5a80669846cfbaf8bde70fc6f7a3be9828cffc9ba5f1db60405160405180910390a250565b60008060009054906101000a900473ffffffffffffffffffffffffffffffffffffffff1673ffffffffffffffffffffffffffffffffffffffff163373ffffffffffffffffffffffffffffffffffffffff16146108d8576040517f08c379a00000000000000000000000000000000000000000000000000000000081526004016108cf906113bf565b60405180910390fd5b6000600254905060405180606001604052808281526020016001600581111561092a577f4e487b7100000000000000000000000000000000000000000000000000000000600052602160045260246000fd5b81526020018473ffffffffffffffffffffffffffffffffffffffff16815250600160008381526020019081526020016000206000820151816000015560208201518160010160006101000a81548160ff021916908360058111156109b7577f4e487b7100000000000000000000000000000000000000000000000000000000600052602160045260246000fd5b021790555060408201518160010160016101000a81548173ffffffffffffffffffffffffffffffffffffffff021916908373ffffffffffffffffffffffffffffffffffffffff16021790555090505060026000815480929190610a19906114cf565b919050555060016005811115610a58577f4e487b7100000000000000000000000000000000000000000000000000000000600052602160045260246000fd5b8373ffffffffffffffffffffffffffffffffffffffff16827fe2fd0b278b760054fa6b107668a88cad6db92086d4915a0f49c418ef2986dea060405160405180910390a480915050919050565b60008060009054906101000a900473ffffffffffffffffffffffffffffffffffffffff1673ffffffffffffffffffffffffffffffffffffffff163373ffffffffffffffffffffffffffffffffffffffff1614610b36576040517f08c379a0000000000000000000000000000000000000000000000000000000008152600401610b2d906113bf565b60405180910390fd5b600060025490506040518060600160405280828152602001600580811115610b87577f4e487b7100000000000000000000000000000000000000000000000000000000600052602160045260246000fd5b81526020018473ffffffffffffffffffffffffffffffffffffffff16815250600160008381526020019081526020016000206000820151816000015560208201518160010160006101000a81548160ff02191690836005811115610c14577f4e487b7100000000000000000000000000000000000000000000000000000000600052602160045260246000fd5b021790555060408201518160010160016101000a81548173ffffffffffffffffffffffffffffffffffffffff021916908373ffffffffffffffffffffffffffffffffffffffff16021790555090505060026000815480929190610c76906114cf565b9190505550600580811115610cb4577f4e487b7100000000000000000000000000000000000000000000000000000000600052602160045260246000fd5b8373ffffffffffffffffffffffffffffffffffffffff16827fe2fd0b278b760054fa6b107668a88cad6db92086d4915a0f49c418ef2986dea060405160405180910390a480915050919050565b60025481565b600060149054906101000a900460ff1681565b60008060009054906101000a900473ffffffffffffffffffffffffffffffffffffffff1673ffffffffffffffffffffffffffffffffffffffff163373ffffffffffffffffffffffffffffffffffffffff1614610dab576040517f08c379a0000000000000000000000000000000000000000000000000000000008152600401610da2906113bf565b60405180910390fd5b60006002549050604051806060016040528082815260200160036005811115610dfd577f4e487b7100000000000000000000000000000000000000000000000000000000600052602160045260246000fd5b81526020018473ffffffffffffffffffffffffffffffffffffffff16815250600160008381526020019081526020016000206000820151816000015560208201518160010160006101000a81548160ff02191690836005811115610e8a577f4e487b7100000000000000000000000000000000000000000000000000000000600052602160045260246000fd5b021790555060408201518160010160016101000a81548173ffffffffffffffffffffffffffffffffffffffff021916908373ffffffffffffffffffffffffffffffffffffffff16021790555090505060026000815480929190610eec906114cf565b919050555060036005811115610f2b577f4e487b7100000000000000000000000000000000000000000000000000000000600052602160045260246000fd5b8373ffffffffffffffffffffffffffffffffffffffff16827fe2fd0b278b760054fa6b107668a88cad6db92086d4915a0f49c418ef2986dea060405160405180910390a480915050919050565b60008054906101000a900473ffffffffffffffffffffffffffffffffffffffff1681565b60016020528060005260406000206000915090508060000154908060010160009054906101000a900460ff16908060010160019054906101000a900473ffffffffffffffffffffffffffffffffffffffff16905083565b60008060009054906101000a900473ffffffffffffffffffffffffffffffffffffffff1673ffffffffffffffffffffffffffffffffffffffff163373ffffffffffffffffffffffffffffffffffffffff1614611084576040517f08c379a000000000000000000000000000000000000000000000000000000000815260040161107b906113bf565b60405180910390fd5b600060025490506040518060600160405280828152602001600460058111156110d6577f4e487b7100000000000000000000000000000000000000000000000000000000600052602160045260246000fd5b81526020018473ffffffffffffffffffffffffffffffffffffffff16815250600160008381526020019081526020016000206000820151816000015560208201518160010160006101000a81548160ff02191690836005811115611163577f4e487b7100000000000000000000000000000000000000000000000000000000600052602160045260246000fd5b021790555060408201518160010160016101000a81548173ffffffffffffffffffffffffffffffffffffffff021916908373ffffffffffffffffffffffffffffffffffffffff160217905550905050600260008154809291906111c5906114cf565b919050555060046005811115611204577f4e487b7100000000000000000000000000000000000000000000000000000000600052602160045260246000fd5b8373ffffffffffffffffffffffffffffffffffffffff16827fe2fd0b278b760054fa6b107668a88cad6db92086d4915a0f49c418ef2986dea060405160405180910390a480915050919050565b6000813590506112608161158a565b92915050565b600081359050611275816115a1565b92915050565b60006020828403121561128d57600080fd5b600061129b84828501611251565b91505092915050565b6000602082840312156112b657600080fd5b60006112c484828501611266565b91505092915050565b6112d681611462565b82525050565b6112e581611474565b82525050565b6112f4816114bd565b82525050565b6000611307601083611451565b91507f4e6f7420746865206578656375746f72000000000000000000000000000000006000830152602082019050919050565b6000611347601483611451565b91507f4578656375746f7220616c7265616479207365740000000000000000000000006000830152602082019050919050565b611383816114b3565b82525050565b600060208201905061139e60008301846112cd565b92915050565b60006020820190506113b960008301846112dc565b92915050565b600060208201905081810360008301526113d8816112fa565b9050919050565b600060208201905081810360008301526113f88161133a565b9050919050565b6000602082019050611414600083018461137a565b92915050565b600060608201905061142f600083018661137a565b61143c60208301856112eb565b61144960408301846112cd565b949350505050565b600082825260208201905092915050565b600061146d82611493565b9050919050565b60008115159050919050565b600081905061148e82611576565b919050565b600073ffffffffffffffffffffffffffffffffffffffff82169050919050565b6000819050919050565b60006114c882611480565b9050919050565b60006114da826114b3565b91507fffffffffffffffffffffffffffffffffffffffffffffffffffffffffffffffff82141561150d5761150c611518565b5b600182019050919050565b7f4e487b7100000000000000000000000000000000000000000000000000000000600052601160045260246000fd5b7f4e487b7100000000000000000000000000000000000000000000000000000000600052602160045260246000fd5b6006811061158757611586611547565b5b50565b61159381611462565b811461159e57600080fd5b50565b6115aa816114b3565b81146115b557600080fd5b5056fea2646970667358221220d02a36cefc01eb724f315a23f4d315e95b50ed9f7a3a795ac377c15079c7359f64736f6c63430008000033",
  "immutableReferences": {},
  "source": "// SPDX-License-Identifier: MIT\r\npragma solidity ^0.8.0;\r\n\r\nimport \"./OnlyExecutor.sol\";\r\n\r\ncontract AssetManagement is OnlyExecutor {\r\n    enum AssetType { RealEstate, Financial, Artwork, Business, Insurance, Debts }\r\n\r\n    struct Asset {\r\n        uint256 assetId;\r\n        AssetType assetType;\r\n        address ownerAddress;\r\n        // Add other asset details\r\n    }\r\n\r\n    mapping(uint256 => Asset) public assets;\r\n    uint256 public nextAssetId = 1;\r\n\r\n    event AssetRegistered(uint256 indexed assetId, address indexed ownerAddress, AssetType indexed assetType);\r\n\r\n    modifier onlyAssetOwner(uint256 assetId) {\r\n        require(msg.sender == assets[assetId].ownerAddress, \"Not the asset owner\");\r\n        _;\r\n    }\r\n\r\n    function registerRealEstateAsset(address ownerAddress /* Add other input parameters */) external onlyExecutor returns (uint256) {\r\n        uint256 assetId = nextAssetId;\r\n        assets[assetId] = Asset(assetId, AssetType.RealEstate, ownerAddress /* add other parameters */);\r\n        nextAssetId++;\r\n        emit AssetRegistered(assetId, ownerAddress, AssetType.RealEstate);\r\n        return assetId;\r\n    }\r\n\r\n    function registerFinancialAsset(address ownerAddress /* Add other input parameters */) external onlyExecutor returns (uint256) {\r\n        uint256 assetId = nextAssetId;\r\n        assets[assetId] = Asset(assetId, AssetType.Financial, ownerAddress /* add other parameters */);\r\n        nextAssetId++;\r\n        emit AssetRegistered(assetId, ownerAddress, AssetType.Financial);\r\n        return assetId;\r\n    }\r\n\r\n    function registerArtworkAsset(address ownerAddress /* Add other input parameters */) external onlyExecutor returns (uint256) {\r\n        uint256 assetId = nextAssetId;\r\n        assets[assetId] = Asset(assetId, AssetType.Artwork, ownerAddress /* add other parameters */);\r\n        nextAssetId++;\r\n        emit AssetRegistered(assetId, ownerAddress, AssetType.Artwork);\r\n        return assetId;\r\n    }\r\n\r\n    function registerBusinessAsset(address ownerAddress /* Add other input parameters */) external onlyExecutor returns (uint256) {\r\n        uint256 assetId = nextAssetId;\r\n        assets[assetId] = Asset(assetId, AssetType.Business, ownerAddress /* add other parameters */);\r\n        nextAssetId++;\r\n        emit AssetRegistered(assetId, ownerAddress, AssetType.Business);\r\n        return assetId;\r\n    }\r\n\r\n    function registerInsuranceAsset(address ownerAddress /* Add other input parameters */) external onlyExecutor returns (uint256) {\r\n        uint256 assetId = nextAssetId;\r\n        assets[assetId] = Asset(assetId, AssetType.Insurance, ownerAddress /* add other parameters */);\r\n        nextAssetId++;\r\n        emit AssetRegistered(assetId, ownerAddress, AssetType.Insurance);\r\n        return assetId;\r\n    }\r\n\r\n    function registerDebtsAsset(address ownerAddress /* Add other input parameters */) external onlyExecutor returns (uint256) {\r\n        uint256 assetId = nextAssetId;\r\n        assets[assetId] = Asset(assetId, AssetType.Debts, ownerAddress /* add other parameters */);\r\n        nextAssetId++;\r\n        emit AssetRegistered(assetId, ownerAddress, AssetType.Debts);\r\n        return assetId;\r\n    }\r\n}\r\n\r\n",
  "sourcePath": "C:\\Users\\CManf\\OneDrive\\Dokumenty\\COLON MANFREDINI PROJECT\\contracts\\AssetManagement.sol",
  "compiler": {
    "name": "solc",
    "version": "0.8.0+commit.c7dfd78e.Emscripten.clang"
  },
  "schemaVersion": "3.4.16",
  "updatedAt": "2023-12-01T00:00:31.233Z",
  "networkType": "ethereum",
  "devdoc": {
    "kind": "dev",
    "methods": {},
    "version": 1
  },
  "userdoc": {
    "kind": "user",
    "methods": {},
    "version": 1
  }
}