{
  "contractName": "ConfirmPassing",
  "abi": [
    {
      "anonymous": false,
      "inputs": [
        {
          "indexed": true,
          "internalType": "address",
          "name": "newExecutor",
          "type": "address"
        }
      ],
      "name": "ExecutorSet",
      "type": "event"
    },
    {
      "anonymous": false,
      "inputs": [],
      "name": "ParticipantConfirmed",
      "type": "event"
    },
    {
      "inputs": [],
      "name": "executor",
      "outputs": [
        {
          "internalType": "address",
          "name": "",
          "type": "address"
        }
      ],
      "stateMutability": "view",
      "type": "function",
      "constant": true
    },
    {
      "inputs": [],
      "name": "isParticipantConfirmed",
      "outputs": [
        {
          "internalType": "bool",
          "name": "",
          "type": "bool"
        }
      ],
      "stateMutability": "view",
      "type": "function",
      "constant": true
    },
    {
      "inputs": [
        {
          "internalType": "address",
          "name": "newExecutor",
          "type": "address"
        }
      ],
      "name": "setExecutor",
      "outputs": [],
      "stateMutability": "nonpayable",
      "type": "function"
    },
    {
      "inputs": [],
      "name": "confirmParticipant",
      "outputs": [],
      "stateMutability": "nonpayable",
      "type": "function"
    }
  ],
  "bytecode": "0x608060405234801561001057600080fd5b506104c4806100206000396000f3fe608060405234801561001057600080fd5b506004361061004c5760003560e01c80631c3c0ea814610051578063a707f3e71461006d578063c34c08e51461008b578063fa85ae3a146100a9575b600080fd5b61006b600480360381019061006691906102eb565b6100b3565b005b6100756101c8565b60405161008291906103cd565b60405180910390f35b6100936101db565b6040516100a091906103b2565b60405180910390f35b6100b16101ff565b005b600073ffffffffffffffffffffffffffffffffffffffff1660008054906101000a900473ffffffffffffffffffffffffffffffffffffffff1673ffffffffffffffffffffffffffffffffffffffff1614610142576040517f08c379a000000000000000000000000000000000000000000000000000000000815260040161013990610408565b60405180910390fd5b806000806101000a81548173ffffffffffffffffffffffffffffffffffffffff021916908373ffffffffffffffffffffffffffffffffffffffff1602179055508073ffffffffffffffffffffffffffffffffffffffff167f3e3c5e6d5b512eaa5d5a80669846cfbaf8bde70fc6f7a3be9828cffc9ba5f1db60405160405180910390a250565b600060149054906101000a900460ff1681565b60008054906101000a900473ffffffffffffffffffffffffffffffffffffffff1681565b60008054906101000a900473ffffffffffffffffffffffffffffffffffffffff1673ffffffffffffffffffffffffffffffffffffffff163373ffffffffffffffffffffffffffffffffffffffff161461028d576040517f08c379a0000000000000000000000000000000000000000000000000000000008152600401610284906103e8565b60405180910390fd5b6001600060146101000a81548160ff0219169083151502179055507f58aa56f57fdd84511fbfc1d231489e7db3732255d5b8e2fe4895d91536f0c00b60405160405180910390a1565b6000813590506102e581610477565b92915050565b6000602082840312156102fd57600080fd5b600061030b848285016102d6565b91505092915050565b61031d81610439565b82525050565b61032c8161044b565b82525050565b600061033f601083610428565b91507f4e6f7420746865206578656375746f72000000000000000000000000000000006000830152602082019050919050565b600061037f601483610428565b91507f4578656375746f7220616c7265616479207365740000000000000000000000006000830152602082019050919050565b60006020820190506103c76000830184610314565b92915050565b60006020820190506103e26000830184610323565b92915050565b6000602082019050818103600083015261040181610332565b9050919050565b6000602082019050818103600083015261042181610372565b9050919050565b600082825260208201905092915050565b600061044482610457565b9050919050565b60008115159050919050565b600073ffffffffffffffffffffffffffffffffffffffff82169050919050565b61048081610439565b811461048b57600080fd5b5056fea26469706673582212208cc9352fa8d29b5b82720f748ddec3b18e01e6f632674a9c8795105ed06ee5e064736f6c63430008000033",
  "immutableReferences": {},
  "source": "// SPDX-License-Identifier: MIT\r\npragma solidity ^0.8.0;\r\n\r\nimport \"./OnlyExecutor.sol\";\r\n\r\ncontract ConfirmPassing is OnlyExecutor {\r\n    event ParticipantConfirmed();\r\n\r\n    function confirmParticipant() external onlyExecutor {\r\n        isParticipantConfirmed = true;\r\n        emit ParticipantConfirmed();\r\n    }\r\n}\r\n",
  "sourcePath": "C:\\Users\\CManf\\OneDrive\\Dokumenty\\COLON MANFREDINI PROJECT\\contracts\\ConfirmPassing.sol",
  "compiler": {
    "name": "solc",
    "version": "0.8.0+commit.c7dfd78e.Emscripten.clang"
  },
  "schemaVersion": "3.4.16",
  "updatedAt": "2023-12-01T00:00:31.562Z",
  "networkType": "ethereum",
  "devdoc": {
    "kind": "dev",
    "methods": {},
    "version": 1
  },
  "userdoc": {
    "kind": "user",
    "methods": {},
    "version": 1
  }
}