{
  "contractName": "ExecuteEstate",
  "abi": [
    {
      "anonymous": false,
      "inputs": [
        {
          "indexed": true,
          "internalType": "uint256",
          "name": "planId",
          "type": "uint256"
        }
      ],
      "name": "EstateExecuted",
      "type": "event"
    },
    {
      "anonymous": false,
      "inputs": [
        {
          "indexed": true,
          "internalType": "address",
          "name": "newExecutor",
          "type": "address"
        }
      ],
      "name": "ExecutorSet",
      "type": "event"
    },
    {
      "inputs": [],
      "name": "executor",
      "outputs": [
        {
          "internalType": "address",
          "name": "",
          "type": "address"
        }
      ],
      "stateMutability": "view",
      "type": "function",
      "constant": true
    },
    {
      "inputs": [],
      "name": "isParticipantConfirmed",
      "outputs": [
        {
          "internalType": "bool",
          "name": "",
          "type": "bool"
        }
      ],
      "stateMutability": "view",
      "type": "function",
      "constant": true
    },
    {
      "inputs": [
        {
          "internalType": "uint256",
          "name": "",
          "type": "uint256"
        }
      ],
      "name": "planExecuted",
      "outputs": [
        {
          "internalType": "bool",
          "name": "",
          "type": "bool"
        }
      ],
      "stateMutability": "view",
      "type": "function",
      "constant": true
    },
    {
      "inputs": [
        {
          "internalType": "address",
          "name": "newExecutor",
          "type": "address"
        }
      ],
      "name": "setExecutor",
      "outputs": [],
      "stateMutability": "nonpayable",
      "type": "function"
    },
    {
      "inputs": [
        {
          "internalType": "uint256",
          "name": "planId",
          "type": "uint256"
        }
      ],
      "name": "executeEstate",
      "outputs": [],
      "stateMutability": "nonpayable",
      "type": "function"
    }
  ],
  "bytecode": "0x608060405234801561001057600080fd5b50610712806100206000396000f3fe608060405234801561001057600080fd5b50600436106100575760003560e01c80631c3c0ea81461005c578063276ab68f1461007857806396ccd95c146100a8578063a707f3e7146100c4578063c34c08e5146100e2575b600080fd5b6100766004803603810190610071919061042f565b610100565b005b610092600480360381019061008d9190610458565b610215565b60405161009f91906105ba565b60405180910390f35b6100c260048036038101906100bd9190610458565b610235565b005b6100cc6103ce565b6040516100d991906105ba565b60405180910390f35b6100ea6103e1565b6040516100f7919061059f565b60405180910390f35b600073ffffffffffffffffffffffffffffffffffffffff1660008054906101000a900473ffffffffffffffffffffffffffffffffffffffff1673ffffffffffffffffffffffffffffffffffffffff161461018f576040517f08c379a000000000000000000000000000000000000000000000000000000000815260040161018690610635565b60405180910390fd5b806000806101000a81548173ffffffffffffffffffffffffffffffffffffffff021916908373ffffffffffffffffffffffffffffffffffffffff1602179055508073ffffffffffffffffffffffffffffffffffffffff167f3e3c5e6d5b512eaa5d5a80669846cfbaf8bde70fc6f7a3be9828cffc9ba5f1db60405160405180910390a250565b60016020528060005260406000206000915054906101000a900460ff1681565b60008054906101000a900473ffffffffffffffffffffffffffffffffffffffff1673ffffffffffffffffffffffffffffffffffffffff163373ffffffffffffffffffffffffffffffffffffffff16146102c3576040517f08c379a00000000000000000000000000000000000000000000000000000000081526004016102ba90610615565b60405180910390fd5b600060149054906101000a900460ff16610312576040517f08c379a0000000000000000000000000000000000000000000000000000000008152600401610309906105f5565b60405180910390fd5b6001600082815260200190815260200160002060009054906101000a900460ff1615610373576040517f08c379a000000000000000000000000000000000000000000000000000000000815260040161036a906105d5565b60405180910390fd5b600180600083815260200190815260200160002060006101000a81548160ff021916908315150217905550807f84ea1b67bb4b414875d3844b32ba206e03a1ebde59d49c0e48bd10814ca2a61960405160405180910390a250565b600060149054906101000a900460ff1681565b60008054906101000a900473ffffffffffffffffffffffffffffffffffffffff1681565b600081359050610414816106ae565b92915050565b600081359050610429816106c5565b92915050565b60006020828403121561044157600080fd5b600061044f84828501610405565b91505092915050565b60006020828403121561046a57600080fd5b60006104788482850161041a565b91505092915050565b61048a81610666565b82525050565b61049981610678565b82525050565b60006104ac601c83610655565b91507f45737461746520706c616e20616c7265616479206578656375746564000000006000830152602082019050919050565b60006104ec601983610655565b91507f5061727469636970616e74206e6f7420636f6e6669726d6564000000000000006000830152602082019050919050565b600061052c601083610655565b91507f4e6f7420746865206578656375746f72000000000000000000000000000000006000830152602082019050919050565b600061056c601483610655565b91507f4578656375746f7220616c7265616479207365740000000000000000000000006000830152602082019050919050565b60006020820190506105b46000830184610481565b92915050565b60006020820190506105cf6000830184610490565b92915050565b600060208201905081810360008301526105ee8161049f565b9050919050565b6000602082019050818103600083015261060e816104df565b9050919050565b6000602082019050818103600083015261062e8161051f565b9050919050565b6000602082019050818103600083015261064e8161055f565b9050919050565b600082825260208201905092915050565b600061067182610684565b9050919050565b60008115159050919050565b600073ffffffffffffffffffffffffffffffffffffffff82169050919050565b6000819050919050565b6106b781610666565b81146106c257600080fd5b50565b6106ce816106a4565b81146106d957600080fd5b5056fea2646970667358221220f15a5d9be758a2719db83dcfd22f60327ebf3497af8b9cdb0c09c8fe4ad3418c64736f6c63430008000033",
  "immutableReferences": {},
  "source": "// SPDX-License-Identifier: MIT\r\npragma solidity ^0.8.0;\r\n\r\nimport \"./OnlyExecutor.sol\";\r\n\r\ncontract ExecuteEstate is OnlyExecutor {\r\n    mapping(uint256 => bool) public planExecuted;\r\n\r\n    event EstateExecuted(uint256 indexed planId);\r\n\r\n    function executeEstate(uint256 planId) external onlyExecutor onlyAfterDeathConfirmation {\r\n        require(!planExecuted[planId], \"Estate plan already executed\");\r\n        // Implement asset transfer logic based on the inheritance plan\r\n        // ...\r\n        planExecuted[planId] = true;\r\n        emit EstateExecuted(planId);\r\n    }\r\n}\r\n",
  "sourcePath": "C:\\Users\\CManf\\OneDrive\\Dokumenty\\COLON MANFREDINI PROJECT\\contracts\\ExecuteEstate.sol",
  "compiler": {
    "name": "solc",
    "version": "0.8.0+commit.c7dfd78e.Emscripten.clang"
  },
  "schemaVersion": "3.4.16",
  "updatedAt": "2023-12-01T00:00:31.659Z",
  "networkType": "ethereum",
  "devdoc": {
    "kind": "dev",
    "methods": {},
    "version": 1
  },
  "userdoc": {
    "kind": "user",
    "methods": {},
    "version": 1
  }
}