{
  "contractName": "IdentityVerification",
  "abi": [
    {
      "anonymous": false,
      "inputs": [
        {
          "indexed": true,
          "internalType": "address",
          "name": "newExecutor",
          "type": "address"
        }
      ],
      "name": "ExecutorSet",
      "type": "event"
    },
    {
      "anonymous": false,
      "inputs": [
        {
          "indexed": true,
          "internalType": "address",
          "name": "user",
          "type": "address"
        }
      ],
      "name": "UserVerified",
      "type": "event"
    },
    {
      "inputs": [],
      "name": "executor",
      "outputs": [
        {
          "internalType": "address",
          "name": "",
          "type": "address"
        }
      ],
      "stateMutability": "view",
      "type": "function",
      "constant": true
    },
    {
      "inputs": [],
      "name": "isParticipantConfirmed",
      "outputs": [
        {
          "internalType": "bool",
          "name": "",
          "type": "bool"
        }
      ],
      "stateMutability": "view",
      "type": "function",
      "constant": true
    },
    {
      "inputs": [
        {
          "internalType": "address",
          "name": "newExecutor",
          "type": "address"
        }
      ],
      "name": "setExecutor",
      "outputs": [],
      "stateMutability": "nonpayable",
      "type": "function"
    },
    {
      "inputs": [
        {
          "internalType": "address",
          "name": "userAddress",
          "type": "address"
        }
      ],
      "name": "verifyIdentity",
      "outputs": [],
      "stateMutability": "nonpayable",
      "type": "function"
    }
  ],
  "bytecode": "0x608060405234801561001057600080fd5b5061052a806100206000396000f3fe608060405234801561001057600080fd5b506004361061004c5760003560e01c80631c3c0ea814610051578063a707f3e71461006d578063b5b90fd91461008b578063c34c08e5146100a7575b600080fd5b61006b60048036038101906100669190610351565b6100c5565b005b6100756101da565b6040516100829190610433565b60405180910390f35b6100a560048036038101906100a09190610351565b6101ed565b005b6100af610318565b6040516100bc9190610418565b60405180910390f35b600073ffffffffffffffffffffffffffffffffffffffff1660008054906101000a900473ffffffffffffffffffffffffffffffffffffffff1673ffffffffffffffffffffffffffffffffffffffff1614610154576040517f08c379a000000000000000000000000000000000000000000000000000000000815260040161014b9061046e565b60405180910390fd5b806000806101000a81548173ffffffffffffffffffffffffffffffffffffffff021916908373ffffffffffffffffffffffffffffffffffffffff1602179055508073ffffffffffffffffffffffffffffffffffffffff167f3e3c5e6d5b512eaa5d5a80669846cfbaf8bde70fc6f7a3be9828cffc9ba5f1db60405160405180910390a250565b600060149054906101000a900460ff1681565b60008054906101000a900473ffffffffffffffffffffffffffffffffffffffff1673ffffffffffffffffffffffffffffffffffffffff163373ffffffffffffffffffffffffffffffffffffffff161461027b576040517f08c379a00000000000000000000000000000000000000000000000000000000081526004016102729061044e565b60405180910390fd5b60018060008373ffffffffffffffffffffffffffffffffffffffff1673ffffffffffffffffffffffffffffffffffffffff16815260200190815260200160002060006101000a81548160ff0219169083151502179055508073ffffffffffffffffffffffffffffffffffffffff167fa6625d2d26e786e2f473111bea4b2fcdbbf1863d883a2359989ce3a103d2972a60405160405180910390a250565b60008054906101000a900473ffffffffffffffffffffffffffffffffffffffff1681565b60008135905061034b816104dd565b92915050565b60006020828403121561036357600080fd5b60006103718482850161033c565b91505092915050565b6103838161049f565b82525050565b610392816104b1565b82525050565b60006103a560108361048e565b91507f4e6f7420746865206578656375746f72000000000000000000000000000000006000830152602082019050919050565b60006103e560148361048e565b91507f4578656375746f7220616c7265616479207365740000000000000000000000006000830152602082019050919050565b600060208201905061042d600083018461037a565b92915050565b60006020820190506104486000830184610389565b92915050565b6000602082019050818103600083015261046781610398565b9050919050565b60006020820190508181036000830152610487816103d8565b9050919050565b600082825260208201905092915050565b60006104aa826104bd565b9050919050565b60008115159050919050565b600073ffffffffffffffffffffffffffffffffffffffff82169050919050565b6104e68161049f565b81146104f157600080fd5b5056fea264697066735822122000c5fdc24bc3ac15bf1496f97fed2d5ef457b44139c2a49c4df6025f04677ebc64736f6c63430008000033",
  "immutableReferences": {},
  "source": "// SPDX-License-Identifier: MIT\r\npragma solidity ^0.8.0;\r\n\r\nimport \"./OnlyExecutor.sol\";\r\n\r\ncontract IdentityVerification is OnlyExecutor {\r\n    mapping(address => bool) private verifiedUsers;\r\n\r\n    event UserVerified(address indexed user);\r\n\r\n    modifier onlyVerifiedUser(address userAddress) {\r\n        require(verifiedUsers[userAddress], \"User not verified\");\r\n        _;\r\n    }\r\n\r\n    function verifyIdentity(address userAddress) external onlyExecutor {\r\n        verifiedUsers[userAddress] = true;\r\n        emit UserVerified(userAddress);\r\n    }\r\n}\r\n",
  "sourcePath": "C:\\Users\\CManf\\OneDrive\\Dokumenty\\COLON MANFREDINI PROJECT\\contracts\\IdentityVerification.sol",
  "compiler": {
    "name": "solc",
    "version": "0.8.0+commit.c7dfd78e.Emscripten.clang"
  },
  "schemaVersion": "3.4.16",
  "updatedAt": "2023-12-01T00:00:31.344Z",
  "networkType": "ethereum",
  "devdoc": {
    "kind": "dev",
    "methods": {},
    "version": 1
  },
  "userdoc": {
    "kind": "user",
    "methods": {},
    "version": 1
  }
}