{
  "contractName": "InheritancePlan",
  "abi": [
    {
      "anonymous": false,
      "inputs": [
        {
          "indexed": true,
          "internalType": "address",
          "name": "newExecutor",
          "type": "address"
        }
      ],
      "name": "ExecutorSet",
      "type": "event"
    },
    {
      "inputs": [],
      "name": "executor",
      "outputs": [
        {
          "internalType": "address",
          "name": "",
          "type": "address"
        }
      ],
      "stateMutability": "view",
      "type": "function",
      "constant": true
    },
    {
      "inputs": [
        {
          "internalType": "uint256",
          "name": "",
          "type": "uint256"
        },
        {
          "internalType": "uint256",
          "name": "",
          "type": "uint256"
        }
      ],
      "name": "inheritancePlans",
      "outputs": [
        {
          "internalType": "uint256",
          "name": "",
          "type": "uint256"
        }
      ],
      "stateMutability": "view",
      "type": "function",
      "constant": true
    },
    {
      "inputs": [],
      "name": "isParticipantConfirmed",
      "outputs": [
        {
          "internalType": "bool",
          "name": "",
          "type": "bool"
        }
      ],
      "stateMutability": "view",
      "type": "function",
      "constant": true
    },
    {
      "inputs": [
        {
          "internalType": "address",
          "name": "newExecutor",
          "type": "address"
        }
      ],
      "name": "setExecutor",
      "outputs": [],
      "stateMutability": "nonpayable",
      "type": "function"
    },
    {
      "inputs": [
        {
          "internalType": "uint256",
          "name": "planId",
          "type": "uint256"
        },
        {
          "components": [
            {
              "internalType": "uint256",
              "name": "key",
              "type": "uint256"
            },
            {
              "internalType": "uint256",
              "name": "value",
              "type": "uint256"
            }
          ],
          "internalType": "struct InheritancePlan.InheritanceDetails[]",
          "name": "updatedDetails",
          "type": "tuple[]"
        }
      ],
      "name": "modifyInheritancePlan",
      "outputs": [
        {
          "internalType": "bool",
          "name": "",
          "type": "bool"
        }
      ],
      "stateMutability": "nonpayable",
      "type": "function"
    }
  ],
  "bytecode": "0x608060405234801561001057600080fd5b506108b5806100206000396000f3fe608060405234801561001057600080fd5b50600436106100575760003560e01c80631c3c0ea81461005c5780631fe44a16146100785780637af86e48146100a8578063a707f3e7146100d8578063c34c08e5146100f6575b600080fd5b610076600480360381019061007191906104fd565b610114565b005b610092600480360381019061008d9190610526565b610229565b60405161009f919061067e565b60405180910390f35b6100c260048036038101906100bd919061057a565b610395565b6040516100cf91906106d9565b60405180910390f35b6100e06103ba565b6040516100ed919061067e565b60405180910390f35b6100fe6103cd565b60405161010b9190610663565b60405180910390f35b600073ffffffffffffffffffffffffffffffffffffffff1660008054906101000a900473ffffffffffffffffffffffffffffffffffffffff1673ffffffffffffffffffffffffffffffffffffffff16146101a3576040517f08c379a000000000000000000000000000000000000000000000000000000000815260040161019a906106b9565b60405180910390fd5b806000806101000a81548173ffffffffffffffffffffffffffffffffffffffff021916908373ffffffffffffffffffffffffffffffffffffffff1602179055508073ffffffffffffffffffffffffffffffffffffffff167f3e3c5e6d5b512eaa5d5a80669846cfbaf8bde70fc6f7a3be9828cffc9ba5f1db60405160405180910390a250565b60008060009054906101000a900473ffffffffffffffffffffffffffffffffffffffff1673ffffffffffffffffffffffffffffffffffffffff163373ffffffffffffffffffffffffffffffffffffffff16146102ba576040517f08c379a00000000000000000000000000000000000000000000000000000000081526004016102b190610699565b60405180910390fd5b60005b825181101561038a578281815181106102ff577f4e487b7100000000000000000000000000000000000000000000000000000000600052603260045260246000fd5b602002602001015160200151600160008681526020019081526020016000206000858481518110610359577f4e487b7100000000000000000000000000000000000000000000000000000000600052603260045260246000fd5b6020026020010151600001518152602001908152602001600020819055508080610382906107aa565b9150506102bd565b506001905092915050565b6001602052816000526040600020602052806000526040600020600091509150505481565b600060149054906101000a900460ff1681565b60008054906101000a900473ffffffffffffffffffffffffffffffffffffffff1681565b60006104046103ff84610725565b6106f4565b9050808382526020820190508285604086028201111561042357600080fd5b60005b858110156104535781610439888261049c565b845260208401935060408301925050600181019050610426565b5050509392505050565b60008135905061046c81610851565b92915050565b600082601f83011261048357600080fd5b81356104938482602086016103f1565b91505092915050565b6000604082840312156104ae57600080fd5b6104b860406106f4565b905060006104c8848285016104e8565b60008301525060206104dc848285016104e8565b60208301525092915050565b6000813590506104f781610868565b92915050565b60006020828403121561050f57600080fd5b600061051d8482850161045d565b91505092915050565b6000806040838503121561053957600080fd5b6000610547858286016104e8565b925050602083013567ffffffffffffffff81111561056457600080fd5b61057085828601610472565b9150509250929050565b6000806040838503121561058d57600080fd5b600061059b858286016104e8565b92505060206105ac858286016104e8565b9150509250929050565b6105bf81610762565b82525050565b6105ce81610774565b82525050565b60006105e1601083610751565b91507f4e6f7420746865206578656375746f72000000000000000000000000000000006000830152602082019050919050565b6000610621601483610751565b91507f4578656375746f7220616c7265616479207365740000000000000000000000006000830152602082019050919050565b61065d816107a0565b82525050565b600060208201905061067860008301846105b6565b92915050565b600060208201905061069360008301846105c5565b92915050565b600060208201905081810360008301526106b2816105d4565b9050919050565b600060208201905081810360008301526106d281610614565b9050919050565b60006020820190506106ee6000830184610654565b92915050565b6000604051905081810181811067ffffffffffffffff8211171561071b5761071a610822565b5b8060405250919050565b600067ffffffffffffffff8211156107405761073f610822565b5b602082029050602081019050919050565b600082825260208201905092915050565b600061076d82610780565b9050919050565b60008115159050919050565b600073ffffffffffffffffffffffffffffffffffffffff82169050919050565b6000819050919050565b60006107b5826107a0565b91507fffffffffffffffffffffffffffffffffffffffffffffffffffffffffffffffff8214156107e8576107e76107f3565b5b600182019050919050565b7f4e487b7100000000000000000000000000000000000000000000000000000000600052601160045260246000fd5b7f4e487b7100000000000000000000000000000000000000000000000000000000600052604160045260246000fd5b61085a81610762565b811461086557600080fd5b50565b610871816107a0565b811461087c57600080fd5b5056fea2646970667358221220a461907f3d8d86e66488f6819e45d6b83597ba25b31a90e44f24c015b632e7a864736f6c63430008000033",
  "immutableReferences": {},
  "source": "// SPDX-License-Identifier: MIT\r\npragma solidity ^0.8.0;\r\n\r\nimport \"./OnlyExecutor.sol\";\r\n\r\ncontract InheritancePlan is OnlyExecutor {\r\n    struct InheritanceDetails {\r\n        uint256 key;\r\n        uint256 value;\r\n    }\r\n\r\n    mapping(uint256 => mapping(uint256 => uint256)) public inheritancePlans;\r\n\r\n    // Other contract code...\r\n\r\n    function modifyInheritancePlan(uint256 planId, InheritanceDetails[] memory updatedDetails) external onlyExecutor returns (bool) {\r\n        // Function implementation using an array of structs\r\n        for (uint256 i = 0; i < updatedDetails.length; i++) {\r\n            inheritancePlans[planId][updatedDetails[i].key] = updatedDetails[i].value;\r\n        }\r\n\r\n        // Return a boolean indicating the success of the operation\r\n        return true;\r\n    }\r\n\r\n    // Other contract code...\r\n}\r\n",
  "sourcePath": "C:\\Users\\CManf\\OneDrive\\Dokumenty\\COLON MANFREDINI PROJECT\\contracts\\InheritancePlan.sol",
  "compiler": {
    "name": "solc",
    "version": "0.8.0+commit.c7dfd78e.Emscripten.clang"
  },
  "schemaVersion": "3.4.16",
  "updatedAt": "2023-12-01T00:00:31.096Z",
  "networkType": "ethereum",
  "devdoc": {
    "kind": "dev",
    "methods": {},
    "version": 1
  },
  "userdoc": {
    "kind": "user",
    "methods": {},
    "version": 1
  }
}