{
  "contractName": "OnlyExecutor",
  "abi": [
    {
      "anonymous": false,
      "inputs": [
        {
          "indexed": true,
          "internalType": "address",
          "name": "newExecutor",
          "type": "address"
        }
      ],
      "name": "ExecutorSet",
      "type": "event"
    },
    {
      "inputs": [],
      "name": "executor",
      "outputs": [
        {
          "internalType": "address",
          "name": "",
          "type": "address"
        }
      ],
      "stateMutability": "view",
      "type": "function",
      "constant": true
    },
    {
      "inputs": [],
      "name": "isParticipantConfirmed",
      "outputs": [
        {
          "internalType": "bool",
          "name": "",
          "type": "bool"
        }
      ],
      "stateMutability": "view",
      "type": "function",
      "constant": true
    },
    {
      "inputs": [
        {
          "internalType": "address",
          "name": "newExecutor",
          "type": "address"
        }
      ],
      "name": "setExecutor",
      "outputs": [],
      "stateMutability": "nonpayable",
      "type": "function"
    }
  ],
  "bytecode": "0x608060405234801561001057600080fd5b50610378806100206000396000f3fe608060405234801561001057600080fd5b50600436106100415760003560e01c80631c3c0ea814610046578063a707f3e714610062578063c34c08e514610080575b600080fd5b610060600480360381019061005b91906101ff565b61009e565b005b61006a6101b3565b60405161007791906102a1565b60405180910390f35b6100886101c6565b6040516100959190610286565b60405180910390f35b600073ffffffffffffffffffffffffffffffffffffffff1660008054906101000a900473ffffffffffffffffffffffffffffffffffffffff1673ffffffffffffffffffffffffffffffffffffffff161461012d576040517f08c379a0000000000000000000000000000000000000000000000000000000008152600401610124906102bc565b60405180910390fd5b806000806101000a81548173ffffffffffffffffffffffffffffffffffffffff021916908373ffffffffffffffffffffffffffffffffffffffff1602179055508073ffffffffffffffffffffffffffffffffffffffff167f3e3c5e6d5b512eaa5d5a80669846cfbaf8bde70fc6f7a3be9828cffc9ba5f1db60405160405180910390a250565b600060149054906101000a900460ff1681565b60008054906101000a900473ffffffffffffffffffffffffffffffffffffffff1681565b6000813590506101f98161032b565b92915050565b60006020828403121561021157600080fd5b600061021f848285016101ea565b91505092915050565b610231816102ed565b82525050565b610240816102ff565b82525050565b60006102536014836102dc565b91507f4578656375746f7220616c7265616479207365740000000000000000000000006000830152602082019050919050565b600060208201905061029b6000830184610228565b92915050565b60006020820190506102b66000830184610237565b92915050565b600060208201905081810360008301526102d581610246565b9050919050565b600082825260208201905092915050565b60006102f88261030b565b9050919050565b60008115159050919050565b600073ffffffffffffffffffffffffffffffffffffffff82169050919050565b610334816102ed565b811461033f57600080fd5b5056fea2646970667358221220d85ca732e56832a34e4ab75e3726c649a3d2918a2af70ac5b6e548c1c52b47d364736f6c63430008000033",
  "immutableReferences": {},
  "source": "// SPDX-License-Identifier: MIT\r\npragma solidity ^0.8.0;\r\n\r\ncontract OnlyExecutor {\r\n    address public executor;\r\n    bool public isParticipantConfirmed;\r\n\r\n    event ExecutorSet(address indexed newExecutor);\r\n\r\n    modifier onlyExecutor() {\r\n        require(msg.sender == executor, \"Not the executor\");\r\n        _;\r\n    }\r\n\r\n    modifier onlyAfterDeathConfirmation() {\r\n        require(isParticipantConfirmed, \"Participant not confirmed\");\r\n        _;\r\n    }\r\n\r\n    function setExecutor(address newExecutor) external {\r\n        require(executor == address(0), \"Executor already set\");\r\n        executor = newExecutor;\r\n        emit ExecutorSet(newExecutor);\r\n    }\r\n}\r\n",
  "sourcePath": "C:\\Users\\CManf\\OneDrive\\Dokumenty\\COLON MANFREDINI PROJECT\\contracts\\OnlyExecutor.sol",
  "compiler": {
    "name": "solc",
    "version": "0.8.0+commit.c7dfd78e.Emscripten.clang"
  },
  "schemaVersion": "3.4.16",
  "updatedAt": "2023-12-01T00:00:31.757Z",
  "networkType": "ethereum",
  "devdoc": {
    "kind": "dev",
    "methods": {},
    "version": 1
  },
  "userdoc": {
    "kind": "user",
    "methods": {},
    "version": 1
  }
}