{
  "contractName": "TransactionRecord",
  "abi": [
    {
      "anonymous": false,
      "inputs": [
        {
          "indexed": true,
          "internalType": "uint256",
          "name": "transactionId",
          "type": "uint256"
        },
        {
          "indexed": true,
          "internalType": "address",
          "name": "userAddress",
          "type": "address"
        }
      ],
      "name": "TransactionRecorded",
      "type": "event"
    },
    {
      "inputs": [
        {
          "internalType": "uint256",
          "name": "",
          "type": "uint256"
        }
      ],
      "name": "transactionDetails",
      "outputs": [
        {
          "internalType": "string",
          "name": "",
          "type": "string"
        }
      ],
      "stateMutability": "view",
      "type": "function",
      "constant": true
    },
    {
      "inputs": [
        {
          "internalType": "uint256",
          "name": "transactionId",
          "type": "uint256"
        },
        {
          "internalType": "string",
          "name": "details",
          "type": "string"
        }
      ],
      "name": "recordTransaction",
      "outputs": [],
      "stateMutability": "nonpayable",
      "type": "function"
    }
  ],
  "bytecode": "0x608060405234801561001057600080fd5b50610545806100206000396000f3fe608060405234801561001057600080fd5b50600436106100365760003560e01c80630d1cab4a1461003b5780633f0a54a614610057575b600080fd5b610055600480360381019061005091906102df565b610087565b005b610071600480360381019061006c91906102b6565b6100f6565b60405161007e919061036c565b60405180910390f35b8060008084815260200190815260200160002090805190602001906100ad929190610196565b503373ffffffffffffffffffffffffffffffffffffffff16827fac4c0f370f3cb8db46f19e66e2434ca342179824b6984d23219fda87e05aa7a960405160405180910390a35050565b6000602052806000526040600020600091509050805461011590610457565b80601f016020809104026020016040519081016040528092919081815260200182805461014190610457565b801561018e5780601f106101635761010080835404028352916020019161018e565b820191906000526020600020905b81548152906001019060200180831161017157829003601f168201915b505050505081565b8280546101a290610457565b90600052602060002090601f0160209004810192826101c4576000855561020b565b82601f106101dd57805160ff191683800117855561020b565b8280016001018555821561020b579182015b8281111561020a5782518255916020019190600101906101ef565b5b509050610218919061021c565b5090565b5b8082111561023557600081600090555060010161021d565b5090565b600061024c610247846103bf565b61038e565b90508281526020810184848401111561026457600080fd5b61026f848285610415565b509392505050565b600082601f83011261028857600080fd5b8135610298848260208601610239565b91505092915050565b6000813590506102b0816104f8565b92915050565b6000602082840312156102c857600080fd5b60006102d6848285016102a1565b91505092915050565b600080604083850312156102f257600080fd5b6000610300858286016102a1565b925050602083013567ffffffffffffffff81111561031d57600080fd5b61032985828601610277565b9150509250929050565b600061033e826103ef565b61034881856103fa565b9350610358818560208601610424565b610361816104e7565b840191505092915050565b600060208201905081810360008301526103868184610333565b905092915050565b6000604051905081810181811067ffffffffffffffff821117156103b5576103b46104b8565b5b8060405250919050565b600067ffffffffffffffff8211156103da576103d96104b8565b5b601f19601f8301169050602081019050919050565b600081519050919050565b600082825260208201905092915050565b6000819050919050565b82818337600083830152505050565b60005b83811015610442578082015181840152602081019050610427565b83811115610451576000848401525b50505050565b6000600282049050600182168061046f57607f821691505b6020821081141561048357610482610489565b5b50919050565b7f4e487b7100000000000000000000000000000000000000000000000000000000600052602260045260246000fd5b7f4e487b7100000000000000000000000000000000000000000000000000000000600052604160045260246000fd5b6000601f19601f8301169050919050565b6105018161040b565b811461050c57600080fd5b5056fea2646970667358221220ae9ca1763adbbe64f010ebc37ae86c4dbcee8285efc08b0bebd307c3325f0d2764736f6c63430008000033",
  "immutableReferences": {},
  "source": "// SPDX-License-Identifier: MIT\r\npragma solidity ^0.8.0;\r\n\r\ncontract TransactionRecord {\r\n    mapping(uint256 => string) public transactionDetails;\r\n\r\n    event TransactionRecorded(uint256 indexed transactionId, address indexed userAddress);\r\n\r\n    function recordTransaction(uint256 transactionId, string memory details) external {\r\n        transactionDetails[transactionId] = details;\r\n        emit TransactionRecorded(transactionId, msg.sender);\r\n    }\r\n}\r\n",
  "sourcePath": "C:\\Users\\CManf\\OneDrive\\Dokumenty\\COLON MANFREDINI PROJECT\\contracts\\TransactionRecord.sol",
  "compiler": {
    "name": "solc",
    "version": "0.8.0+commit.c7dfd78e.Emscripten.clang"
  },
  "schemaVersion": "3.4.16",
  "updatedAt": "2023-12-01T00:00:31.454Z",
  "networkType": "ethereum",
  "devdoc": {
    "kind": "dev",
    "methods": {},
    "version": 1
  },
  "userdoc": {
    "kind": "user",
    "methods": {},
    "version": 1
  }
}